:020000040000FA
:0200000038289E
:08000800C600030E8301C900CC
:100010000A08C7008A010408C8008C1A27280C188F
:100020001E288B181428A9290B128B1085153F1434
:10003000F5308F00D3308E0010142F28FA30CA000C
:1000400010100C108F018E0185110B162F288C1E9D
:100050002F281A08B8008C123A149A012F28480841
:10006000840047088A00490E8300C60E460E090028
:060070000000000000008A
:0201FE000730C8
:100200009F000430860083169F0100308500033074
:100210008600C03081008312981718168501C0012E
:10022000C201BE01CA01BF01A101A401A701AA0127
:10023000AD01B001B301B601B801BD01BB01BC0104
:100240000C10C101BA0141148F018E0104309000DD
:1002500083160C148130990024309800831290305A
:100260009800D0308B001A081A081A0883168C16CA
:1002700083123C21C32139294A08003A031D412930
:1002800008003E184A29A20F482905143E144E2999
:1002900005104E290000000000004E29BE18572905
:1002A000A50F55298514BE145B2985105B29000014
:1002B000000000005B293E196429A80F622905157A
:1002C0003E15682905116829000000000000682912
:1002D000BE197129AB0F6F298615BE1575298611B8
:1002E000752900000000000075293E1A7E29AE0F16
:1002F0007C2906163E16822906128229000000007B
:1003000000008229BE1A8B29B10F89298616BE16D4
:100310008F2986128F290000000000008F293E1BC4
:100320009829B40F962906173E179C2906139C2975
:100330000000000000009C29BE1BA529B70FA329BF
:100340008617BE17A9298613A929000000000000FE
:10035000A9294A08013A031DC0292108A20024083E
:10036000A5002708A8002A08AB002D08AE00300819
:10037000B1003308B4003608B700CA01BE01080056
:100380000130CA0208003A18D229DD22DD22DC221F
:10039000DC220000DD22DD22DD22DD22DC22000065
:1003A000000008003A1039080B3A03194E2A3808A1
:1003B000013A031DE4290130B900BB01BC01DD2273
:1003C000DD22DD22000008003908003A031DF02973
:1003D000BB01BC01DD22DD22DD220000000008009F
:1003E0003B18FA293808A000BD003B14DD22DD22AD
:1003F000DC224B2ABB18042A3808A300BD06BB1414
:10040000DD22DD2200004B2A3B190E2A3808A60007
:10041000BD063B15DD22DC22DC224B2ABB19182A43
:100420003808A900BD06BB15DD22DC2200004B2ADE
:100430003B1A222A3808AC00BD063B16DD2200001C
:1004400000004B2ABB1A2B2A3808AF00BD06BB168A
:10045000DC22DC224B2A3B1B352A3808B200BD06C1
:100460003B17DC22000000004B2ABB1B3F2A380848
:10047000B500BD06BB170000000000004B2A3C1869
:10048000462A3808BD063C1400004B2ABC184D2AE9
:100490003808BD06BC14B90A08004B2ADD2200004A
:1004A000000038083D060319602ABD01B801BB01F0
:1004B000BC01B901DD22DC220000000000000800C0
:1004C0002008A1002308A4002608A7002908AA00E4
:1004D0002C08AD002F08B0003208B3003508B60074
:1004E000BD01B801BB01BC01B90108003F1C7A2A5B
:1004F0003F100800DD22DD22DC22DC2200000800A3
:10050000A101A401A701AA01AD01B001B301B60187
:10051000FF303818A100B818A4003819A700B8197E
:10052000AA00381AAD00B81AB000381BB300B81BC7
:10053000B600080041189D2A9F2AEF22A12A0D2308
:10054000A12AAD01B001B301B601FF304018AD00E2
:10055000C018B0004019B300C019B600400EA10089
:10056000C118BA2AB32A40080F3A0319D72A013012
:10057000C007C12A4008003A0319D72A0130C00237
:10058000C12A4118C42ACB2A4208FF3A0319D32AA8
:100590000130C207D22A4208803A0319D32A013017
:1005A000C207D22A0800C2010130C106D22A023095
:1005B000C106C118BA2AB32A0800DE2ADF2AE02AB7
:1005C00008008A30C300BA30C4000330C500C30B32
:1005D000EA2AC40BEC2AC50BE72A00000800C43045
:1005E000C3005D30C4000230C500C30BF82AC40B41
:1005F000FA2AC50BF52AFC2A000008002C30C3009B
:10060000E730C4000B30C500C30B072BC40B092B0C
:10061000C50B042B0B2B000008005A30C300CD3053
:10062000C4001630C500C30B162BC40B182BC50B0A
:06063000132B000008007E
:02400E000A3F67
:00000001FF
