:020000040000FA
:0200000038289E
:08000800C600030E8301C900CC
:100010000A08C7008A010408C8008C1A27280C188F
:100020001E288B181428A9290B128B1085153F1434
:10003000F5308F00D3308E0010142F28FA30CA000C
:1000400010100C108F018E0185110B162F288C1E9D
:100050002F281A08B8008C123A149A012F28480841
:10006000840047088A00490E8300C60E460E090028
:060070000000000000008A
:0201FE000730C8
:100200009F000430860083169F0100308500033074
:100210008600C03081008312981718168501C0012E
:10022000C201BE01CA01BF01A101A401A701AA0127
:10023000AD01B001B301B601B801BD01BB01BC0104
:100240000C10C101BA0141148F018E0104309000DD
:1002500083160C144030990024309800831290309B
:100260009800D0308B001A081A081A0883168C16CA
:1002700083123C21C32139294A08003A031D412930
:1002800008003E184A29A20F482905143E144E2999
:1002900005104E290000000000004E29BE18572905
:1002A000A50F55298514BE145B2985105B29000014
:1002B000000000005B293E196429A80F622905157A
:1002C0003E15682905116829000000000000682912
:1002D000BE197129AB0F6F298615BE1575298611B8
:1002E000752900000000000075293E1A7E29AE0F16
:1002F0007C2906163E16822906128229000000007B
:1003000000008229BE1A8B29B10F89298616BE16D4
:100310008F2986128F290000000000008F293E1BC4
:100320009829B40F962906173E179C2906139C2975
:100330000000000000009C29BE1BA529B70FA329BF
:100340008617BE17A9298613A929000000000000FE
:10035000A9294A08013A031DC0292108A20024083E
:10036000A5002708A8002A08AB002D08AE00300819
:10037000B1003308B4003608B700CA01BE01080056
:100380000130CA0208003A18D229DE22DE22DD221C
:10039000DD220000DE22DE22DE22DE22DD2200005F
:1003A000000008003A1039080B3A03194F2A3808A0
:1003B000013A031DE4290130B900BB01BC01DE2272
:1003C000DE22DE22000008003908003A031DF02971
:1003D000BB01BC01DE22DE22DE220000000008009C
:1003E0003B18FA293808A000BD003B14DE22DE22AB
:1003F000DD224C2ABB18042A3808A300BD06BB1412
:10040000DE22DE2200004C2A3B190E2A3808A60004
:10041000BD063B15DE22DD22DD224C2ABB19182A3F
:100420003808A900BD06BB15DE22DD2200004C2ADB
:100430003B1A222A3808AC00BD063B16DE2200001B
:1004400000004C2ABB1A2C2A3808AF00BD06BB1688
:10045000DD22DD2200004C2A3B1B362A3808B20080
:10046000BD063B17DD22000000004C2ABB1B402AC2
:100470003808B500BD06BB170000000000004C2A7C
:100480003C18472A3808BD063C1400004C2ABC180A
:100490004E2A3808BD06BC14B90A08004C2ADE22D0
:1004A0000000000038083D060319612ABD01B801AB
:1004B000BB01BC01B901DE22DD220000000000000A
:1004C00008002008A1002308A4002608A700290886
:1004D000AA002C08AD002F08B0003208B300350880
:1004E000B600BD01B801BB01BC01B90108003F1C49
:1004F0007B2A3F100800DE22DE22DD22DD22000002
:100500000800A101A401A701AA01AD01B001B30136
:10051000B601FF303818A100B818A4003819A70098
:10052000B819AA00381AAD00B81AB000381BB300C9
:10053000B81BB600080041189E2AA02AF022A22A61
:100540000E23A22AAD01B001B301B601FF3040185D
:10055000AD00C018B0004019B300C019B600400E7D
:10056000A100C118BB2AB42A40080F3A0319D82A9F
:100570000130C007C22A4008003A0319D82A0130C6
:10058000C002C22A4118C52ACC2A4208FF3A0319E0
:10059000D42A0130C207D32A4208803A0319D42A48
:1005A0000130C207D32A0800C2010130C106D32A94
:1005B0000230C106C118BB2AB42A0800DF2AE02A8B
:1005C000E12A08008A30C300BA30C4000330C500F5
:1005D000C30BEB2AC40BED2AC50BE82A0000080068
:1005E000C430C3005D30C4000230C500C30BF92A1B
:1005F000C40BFB2AC50BF62AFD2A000008002C308C
:10060000C300E730C4000B30C500C30B082BC40B7C
:100610000A2BC50B052B0C2B000008005A30C30019
:10062000CD30C4001630C500C30B172BC40B192BDB
:08063000C50B142B00000800AB
:02400E000A3F67
:00000001FF
